:020003001E637A
:0200050021B523
:020007001EE1F8
:0200090023AC26
:10238A007580FFC2B0D2B6D2B1E58020E7FBAF803C
:01239A002220
:0923B700D2B0D2B6D2B1AF80223F
:10234700AE07ED600312238AC2B0C2B6D2B1AF06A0
:0B2357008F80C2B100000000D2B12254
:10239B00D2B0C2B6D2B18F80C2B100000000D2B1B0
:0123AB00220F
:042225007D03E4FF52
:10222900AE07EDB40107EE540F44C0801AED7007F4
:10223900EE540F44808010EDB40207EE540F449021
:0E2249008005EE540F44D0FFE4FD122347221F
:0F20E3007D01E4FF1222297A0079127B017F1020
:0D20F2009001DBEBF0A3EAF0A3E9F0AE07EC
:1020FF00E4FDEDC39E50047F0180027F00EF540F7B
:10210F00601A9001DBE0FBA3E475F00112054FA903
:0C211F00F0FA1204F7FF12239B0D80D68B
:01212B002291
:021F4E00E4FBB2
:101F5000E49001D8F09001D8E0FFC39410502475AC
:101F6000F010EBA42422F582E5F03400F583E5823D
:101F70002FF582E43583F5837420F09001D8E004D6
:101F8000F080D2EB25E025E02472F582E43401F5FF
:081F90008312058B0000000024
:101F98000BEBB414B3E49001D4F09001D5F09001A8
:101FA800D204F0E49001D3F09001D7F0900011F042
:011FB8002206
:021DE000E4FB22
:101DE200E49001D9F09001D9E0FFC394105023751B
:101DF200F010EBA42422F582E5F03400F583E582AD
:101E02002FF582E43583F583E4F09001D9E004F004
:101E120080D3EB25E025E02472F582E43401F583DA
:071E220012058B0000000017
:101E29000BEBB414B4E49001D4F09001D5F0900018
:101E390011F09001D204F0E49001D3F09001D7F0B1
:101E4900FD1220E61220E37D021220E51222257BF5
:0A1E5900017A0079127F100220F2D6
:101E63007F0A120D41E4FD7F38122347E4FBFA7D1C
:101E73000A7F80120D50E4FD7F0F122347E4FBFA23
:101E83007D0A7F80120D50E4FD7F06122347E4FB99
:101E9300FA7D0A7F80120D50E4FD7F01122347E48F
:101EA300FBFA7D0A7F80120D50E4FD7F0212234767
:101EB300E4FBFA7D0A7F80120D50121F4EE490015D
:101EC300D6F09000007420F07F01120C2F7F0212D5
:0E1ED3000C2F7F03120C2FE4FF120CB880823C
:101CB5009001D5E0B40F061221F0021D4E900000F0
:101CC500E0FF642E705A9001D5E0FE60299001D4A2
:101CD500E075F010A42421F582E5F03400F583E5E4
:101CE500822EF582E43583F583E0FEC39430400609
:101CF500EED39439402A9001D5E0FE9001D4E075E9
:101D0500F010A42422F582E5F03400F583E5822E57
:101D1500F582E43583F5837430F09001D5E004F065
:101D25009001D5E0FE9001D4E075F010A42422F5D1
:101D350082E5F03400F583E5822EF582E43583F5FE
:0F1D450083EFF09001D5E004F0E49001D3F02299
:091B45009001D4E0C39404405E59
:101B4E00E49001D9F0A3F09001D9E0FEA3E0FFC329
:101B5E009404EE648094804003021C03AD07E4FFFE
:101B6E001222299001D4E0FF9001DAE02FFF9001BC
:101B7E00D9E03400FEEFC4F8540FC868FFEEC45429
:101B8E00F048FE74F22FF974FF3EFA1220EE900127
:0E1B9E00DAE004F070B19001D9E004F080A903
:101BAC00E49001D9F0A3F09001D4E0FFFD9001D9AD
:101BBC00E0FAA3E0FBD39D7480F8EA648098503778
:101BCC00C374039F2BFDE4FF122229E0C4F8540FC9
:101BDC00C868FF9001D9E0C454F048FE74222FF974
:101BEC0074003EFA1220EE9001DAE004F070B89026
:071BFC0001D9E004F080B004
:061C0300E49001D2F02282
:10232A00E4FD1220E61220E37D021220E5122225A6
:0D233A007A0079011220EEE49001D2F02229
:10230900E4FD1220E61220E37D021220E5122225C7
:102319007B017A0179C27F101220F2E49001D2F098
:012329002291
:1021B5009001D3E0B40103121CB59001D2E0602375
:1021C5009001D7E0601A24FE600C14600E240270A2
:1021D50012121DE0800D12232A80081223098003A4
:0B21E500121B45120B381223B780C5F7
:0323C0002566008F
:10188B009001D4E0B414061222860219759001D48B
:10189B00E0FF75F010A42422F582E5F03400F58307
:1018AB00E0642D704175F010EFA42423F582E5F070
:1018BB003400F583E0FFD3943940047E0180027E2F
:1018CB0000EFC3943050047F0180027F00EF4E6025
:1018DB00159001D4E075F010A42422F582E5F034C4
:1018EB0000F5837430F09001D5E0FF9001D4E0FE59
:1018FB0075F010A42421F582E5F03400F583E58220
:10190B002FF582E43583F583E0B42E2275F010EECB
:10191B00A42421F582E5F03400F583E5822FF582CE
:10192B00E43583F5837420F09001D5E014F0900139
:10193B00D4E075F010A42422F9740035F0FA7B0181
:10194B0012212C9001D4E025E025E02472F582E4ED
:10195B003401F58312057F9001D4E004F0E490018B
:10196B00D5F09001D7F0900011F0E49001D3F090F6
:05197B0001D204F0227E
:102175009001D5E0D394004024E014F0E0FF9001F5
:10218500D4E075F010A42422F582E5F03400F5833F
:10219500E5822FF582E43583F5837420F0E4900120
:1021A500D3F0900011F09001D7F09001D204F02205
:09178B009001D4E070030222B4C5
:101794009001E512058B00000000E49001E9F0A33C
:1017A400F09001D4E0FFC39001EAE09F7480F890C8
:1017B40001E9E064809850599001E5E0FCA3E0FD64
:1017C400A3E0FEA3E0FFC004C005C006C007A3E079
:1017D400FEA3E07802C333CE33CED8F92472F58267
:1017E40074013EF583E0F8A3E0F9A3E0FAA3E0FB7B
:1017F400D007D006D005D0041200159001E51205DB
:101804007F9001EAE004F070989001E9E004F08030
:1018140090E49001E9F0A3F09001E9E0FEA3E0FF79
:10182400C39410EE64809480501D74012FF582746B
:10183400003EF5837420F09001EAE004F070D99042
:1018440001E9E004F080D19001F274FFF0A3742365
:10185400F0A374C0F09001E5E0FCA3E0FDA3E0FE7A
:10186400A3E0FF9001F512057F7B017A0079011254
:10187400069F9001D77402F0E49001D3F090001118
:06188400F09001D204F017
:01188A00223B
:0913DC009001D4E070030222B478
:1013E5009001E512058B00000000E49001E9F0A3EF
:1013F500F09001D4E0FFC39001EAE09F7480F8907B
:1014050001E9E064809840030214A49001E5E0F846
:10141500A3E0F9A3E0FAA3E0FBC000C001C002C04D
:1014250003A3E0FEA3E07802C333CE33CED8F9247C
:1014350072F58274013EF583E0FCA3E0FDA3E0FEB6
:10144500A3E0FFC004C005C006C0079001E9E0FEA7
:10145500A3E07802C333CE33CED8F92472F5827473
:10146500013EF583E0F8A3E0F9A3E0FAA3E0FBD0A1
:1014750007D006D005D004120106D003D002D00152
:10148500D0001200159001E512057F9001EAE004F5
:10149500F060030213F69001E9E004F00213F6E4AC
:1014A5009001E9F0A3F09001E9E0FEA3E0FFC39409
:1014B50010EE64809480501D74012FF58274003EF7
:1014C500F5837420F09001EAE004F070D99001E909
:1014D500E004F080D19001F274FFF0A37423F0A32F
:1014E50074C0F09001E5E0FCA3E0FDA3E0FEA3E0FD
:1014F500FF9001F512057F7B017A00790112069FA5
:101505009001D77402F0E49001D3F0900011F090AF
:0415150001D204F00B
:0115190022AF
:091653009001D4E070030222B4FE
:10165C009001E512058B00000000E49001E9F0A375
:10166C00F09001D4E0FFC39001EAE09F7480F89001
:10167C0001E9E064809850599001E5E0FCA3E0FD9D
:10168C00A3E0FEA3E0FFC004C005C006C007A3E0B2
:10169C00FEA3E07802C333CE33CED8F92472F582A0
:1016AC0074013EF583E0F8A3E0F9A3E0FAA3E0FBB4
:1016BC00D007D006D005D0041200159001E5120514
:1016CC007F9001EAE004F070989001E9E004F0806A
:1016DC0090E49001E9F0A3F09001E9E0FEA3E0FFB3
:1016EC00C39410EE64809480501D74012FF58274A5
:1016FC00003EF5837420F09001EAE004F070D9907C
:10170C0001E9E004F080D19001E5E0FCA3E0FDA349
:10171C00E0FEA3E0FFC004C005C006C0079001D4E2
:10172C00E0FCE41202B6A804A905AA06AB07D00790
:10173C00D006D005D00412020F9001E512057F905F
:10174C0001F274FFF0A37423F0A374C0F09001E5D0
:10175C00E0FCA3E0FDA3E0FEA3E0FF9001F5120581
:10176C007F7B017A00790112069F9001D77402F0F9
:0E177C00E49001D3F0900011F09001D204F03F
:01178A00223C
:091266009001D4E070030222B4EF
:10126F009001E512058B00000000E49001E9F0A366
:10127F00F09001D4E0FFC39001EAE09F7480F890F2
:10128F0001E9E0648098400302132E9001E5E0F835
:10129F00A3E0F9A3E0FAA3E0FBC000C001C002C0C5
:1012AF0003A3E0FEA3E07802C333CE33CED8F924F4
:1012BF0072F58274013EF583E0FCA3E0FDA3E0FE2E
:1012CF00A3E0FFC004C005C006C0079001E9E0FE1F
:1012DF00A3E07802C333CE33CED8F92472F58274EB
:1012EF00013EF583E0F8A3E0F9A3E0FAA3E0FBD019
:1012FF0007D006D005D004120106D003D002D001CA
:10130F00D0001200159001E512057F9001EAE0046C
:10131F00F060030212809001E9E004F0021280E411
:10132F009001E9F0A3F09001E9E0FEA3E0FFC39480
:10133F0010EE64809480501D74012FF58274003E6E
:10134F00F5837420F09001EAE004F070D99001E980
:10135F00E004F080D19001E5E0FCA3E0FDA3E0FE06
:10136F00A3E0FFC004C005C006C0079001D4E0FC95
:10137F00E41202B6A804A905AA06AB07D007D00647
:10138F00D005D00412020F9001E512057F9001F2F3
:10139F0074FFF0A37423F0A374C0F09001E5E0FC98
:1013AF00A3E0FDA3E0FEA3E0FF9001F512057F7B14
:1013BF00017A00790112069F9001D77402F0E49030
:0C13CF0001D3F0900011F09001D204F066
:0113DB0022EF
:090DAF009001D4E070030222B4AB
:100DB8009001E512058B000000009001E912058BF7
:100DC80000000000E49001EDF0A3F09001D4E0FFF2
:100DD800C39001EEE09F7480F89001EDE064809884
:100DE800505B9001E5E0FCA3E0FDA3E0FEA3E0FF7B
:100DF800C004C005C006C0079001EDE0FEA3E0787E
:100E080002C333CE33CED8F92472F58274013EF58D
:100E180083E0F8A3E0F9A3E0FAA3E0FBD007D0064B
:100E2800D005D0041200159001E512057F9001EE5F
:100E3800E004F070969001EDE004F0808E9001E5FA
:100E4800E0FCA3E0FDA3E0FEA3E0FFC004C005C0F2
:100E580006C0079001D4E0FCE41202B6A804A90574
:100E6800AA06AB07D007D006D005D00412020F900F
:100E780001E512057FE49001EDF0A3F09001D4E0C4
:100E8800FFC39001EEE09F7480F89001EDE064806C
:100E9800984003020F519001E9E0F8A3E0F9A3E0BC
:100EA800FAA3E0FBC000C001C002C003A3E0FEA398
:100EB800E07802C333CE33CED8F92472F5827401B8
:100EC8003EF583E0FCA3E0FDA3E0FEA3E0FF900174
:100ED800E5E0F8A3E0F9A3E0FAA3E0FB120011C0F3
:100EE80004C005C006C0079001EDE0FEA3E078024B
:100EF800C333CE33CED8F92472F58274013EF5831C
:100F0800E0FCA3E0FDA3E0FEA3E0FF9001E5E0F82C
:100F1800A3E0F9A3E0FAA3E0FB120011D003D0028A
:100F2800D001D000120106D003D002D001D00012A7
:100F380000159001E912057F9001EEE004F07006BB
:100F48009001EDE004F0020E84E49001EDF0A3F0CE
:100F58009001EDE0FEA3E0FFC39410EE648094805E
:100F6800501D74012FF58274003EF5837420F090B3
:100F780001EEE004F070D99001EDE004F080D1902A
:100F880001E9E0FCA3E0FDA3E0FEA3E0FFC004C08C
:100F980005C006C0079001D4E0FCE41202B6A8041C
:100FA800A905AA06AB07D007D006D005D0041202BF
:100FB8000F9001E912057F9001E9E0FCA3E0FDA391
:100FC800E0FEA3E0FF121C0D9001E912057F9001DD
:100FD800F274FFF0A37423F0A374C0F09001E9E069
:100FE800FCA3E0FDA3E0FEA3E0FF9001F512057F5E
:100FF8007B017A00790112069F9001D77402F0E410
:0D1008009001D3F0900011F09001D204F09F
:0110150022B8
:091016009001D4E070030222B441
:10101F009001E512058B000000009001E912058B8D
:10102F0000000000E49001EDF0A3F09001D4E0FF88
:10103F00C39001EEE09F7480F89001EDE06480981A
:10104F00505B9001E5E0FCA3E0FDA3E0FEA3E0FF11
:10105F00C004C005C006C0079001EDE0FEA3E07814
:10106F0002C333CE33CED8F92472F58274013EF524
:10107F0083E0F8A3E0F9A3E0FAA3E0FBD007D006E2
:10108F00D005D0041200159001E512057F9001EEF6
:10109F00E004F070969001EDE004F0808E9001E591
:1010AF00E0FCA3E0FDA3E0FEA3E0FFC004C005C089
:1010BF0006C0079001D4E0FCE41202B6A804A9050B
:1010CF00AA06AB07D007D006D005D00412020F90A6
:1010DF0001E512057FE49001EDF0A3F09001D4E05B
:1010EF00FFC39001EEE09F7480F89001EDE0648003
:1010FF009840030211B89001E9E0F8A3E0F9A3E0EA
:10110F00FAA3E0FBC000C001C002C003A3E0FEA32E
:10111F00E07802C333CE33CED8F92472F58274014E
:10112F003EF583E0FCA3E0FDA3E0FEA3E0FF90010A
:10113F00E5E0F8A3E0F9A3E0FAA3E0FB120011C089
:10114F0004C005C006C0079001EDE0FEA3E07802E1
:10115F00C333CE33CED8F92472F58274013EF583B2
:10116F00E0FCA3E0FDA3E0FEA3E0FF9001E5E0F8C3
:10117F00A3E0F9A3E0FAA3E0FB120011D003D00221
:10118F00D001D000120106D003D002D001D000123E
:10119F0000159001E912057F9001EEE004F0700652
:1011AF009001EDE004F00210EBE49001EDF0A3F0FC
:1011BF009001EDE0FEA3E0FFC39410EE64809480F5
:1011CF00501D74012FF58274003EF5837420F0904A
:1011DF0001EEE004F070D99001EDE004F080D190C1
:1011EF0001E9E0FCA3E0FDA3E0FEA3E0FFC004C023
:1011FF0005C006C0079001D4E0FCE41202B6A804B3
:10120F00A905AA06AB07D007D006D005D004120255
:10121F000F9001E912057F9001F274FFF0A3742380
:10122F00F0A374C0F09001E9E0FCA3E0FDA3E0FEA1
:10123F00A3E0FF9001F512057F7B017A007901127F
:10124F00069F9001D77402F0E49001D3F090001143
:06125F00F09001D204F042
:011265002266
:101A66009001D4E075F010A42422F582E5F034004C
:101A7600F583E0642D705CFF9001D4E0FE75F010F4
:101A8600A42423F582E5F03400F583E5822FF58260
:101A9600E43583F583E0FD75F010EEA42422F5828B
:101AA600E5F03400F583E5822FF582E43583F5838E
:101AB600EDF00FEFB40FC19001D4E075F010A4243F
:101AC60031F582E5F03400F583E4F09001D5E014B9
:101AD600F080597F0F9001D4E0FE75F010A4242108
:101AE600F582E5F03400F583E5822FF582E435834F
:101AF600F583E0FD75F010EEA42422F582E5F034BE
:101B060000F583E5822FF582E43583F583EDF0DF7A
:101B1600C49001D4E075F010A42422F582E5F034D7
:101B260000F583742DF09001D5E004F0E49001D720
:0E1B3600F09001D3F0900011F09001D204F075
:011B4400227E
:102362005000122020202020202020202020202069
:0323720020202008
:05151A009001E5EFF077
:10151F00E4F9ED24F1700302161F24F8700302158D
:10152F00EC24FC70030215B924FE60421460030220
:10153F0016509001E5E024E1602F24F0602624F896
:10154F00601D24FC601424FE600B1460030216500F
:10155F007961021650796602165079370216507962
:10156F00340216507931021650793002165090011C
:10157F00E5E024E1602F24F0602624F8601D24FCB0
:10158F00601424FE600B1460030216507962021679
:10159F005079670216507938021650793502165075
:1015AF00793202165079300216509001E5E024E1AD
:1015BF00602724F0601F24F8601724FC600F24FEBE
:1015CF00600714707C7963807879688074793980CA
:1015DF00707936806C79338068792E80649001E55C
:1015EF00E024E1602724F0601F24F8601724FC60DA
:1015FF000F24FE6007147049796480457969804132
:10160F00796B803D796D8039796F80357971803153
:10161F009001E5E024E1602724F0601F24F86017B3
:10162F0024FC600F24FE6007147016796580127910
:10163F006A800E796C800A796E80067970800279E3
:03164F0072AF0176
:011652002275
:102085007590FEE5A0543FFE643F6006AF067D1ED9
:1020950080467590FDE5A0543FFE643F6006AF069F
:1020A5007D1D80347590FBE5A0543FFE643F6006BE
:1020B500AF067D1B80227590F7E5A0543FFE643F77
:1020C5006006AF067D1780107590EFE5A0543FFEC2
:0D20D500643F6007AF067D0F02151A7F0003
:0120E20022DB
:10202100EF249AB40D00505B90203775F003A4C5DE
:102031008325F0C5837302206C0220840220610293
:10204100208402208402207502207802206F022061
:102051007202207B02207E02208102205E02188B08
:102061009001D27401F09001D7F02202217502177C
:102071008B0213DC021653021266020DAF02101618
:04208100121A6622A7
:101EE1009001E3743FF0A3F09001D6E0701312204B
:101EF100859001E3EFF01220219001D67401F0806A
:101F0100141220859001E4EFF09001E3E06F600589
:101F1100E49001D6F09001D6E070CD9001E3E0FFAE
:101F2100C394304006EFD394394004EFB42EB990F6
:101F31000000EFF09001D37401F0E49001D7F0902C
:0D1F41000011F09001D204F0120B38809BCB
:0B23AC00900011E0B401F9B29780F539
:10225700636F6C206F7665722072616E67650072BE
:102267006177206F7665722072616E676500706CAA
:0F2277006561736520696E707574206E756D00FA
:1021F0009001DC74FFF0A37422F0A37457F0A3E401
:10220000F0A37410F07B017A0179C2121FB990011A
:10221000D77403F09001D27401F0E49001D3F090F0
:05222000001104F02292
:102286009001F274FFF0A37422F0A37466F07B0150
:102296007A0179C212069F9001D77403F09001D299
:0E22A6007401F0E49001D3F090001104F022D6
:1022B4009001F274FFF0A37422F0A37475F07B0113
:1022C4007A0179C212069F9001D77403F09001D26B
:0E22D4007401F0E49001D3F090001104F022A8
:03000B00020AC224
:100ABD00C2AF80FE32120AC185D00B75D008AAE0F4
:100ACD00C28CE58A24F7F58AE58C34D8F58CD28C66
:100ADD00EC241CF8E6BC030274FFC39581B414002A
:100AED0040CE7904781316E608700BC2AFE630E1FC
:100AFD00034418F6D2AF08D9EDEA8BD030090122A4
:100B0D00D50DFCC0E0C0D0C0F0C083C082C000C015
:100B1D0001C002C003C004C005C006C007E50C2318
:100B2D002414F87440C2AF46F6D2AFD209E50CFFDB
:100B3D00232414F80F0808BF04047F007814E6304E
:100B4D00E4F200E50CC39F5020050C741B250CF836
:100B5D00E6FDA68108E6AE0CBE030274FFCDF8E8F3
:100B6D006D60E008E6C0E080F6E50CD39F4027E518
:100B7D000C241CF8E6AE0CBE030274FFFD18E6CD86
:100B8D00F8E5816D6006D0E0F61880F5E50C241BC4
:100B9D00C8F6150C80D3750D05E50C232414F87FCC
:100BAD0004C2AFE610E61E30E00310E20C7F003009
:050BBD00E10730E30434
:100BC2007F0854F4547CC6D2AF54804207C2092233
:100BD200F6D2AFD007D006D005D004D003D002D0D1
:100BE20001D000D082D083D0F0D0D0D0E0C2092290
:100BF200781BA68174036006FF0876FFDFFB7F0483
:100C0200E47813F608F608DFFA78147630900003D9
:100C1200740193C0E0E493C0E0750D05438901754A
:0D0C22008AF0758CD8D28CD2AFD2A92203F3
:100C2F00EFD3940340037FFF2274142F2FF8E62095
:100C3F00E5F4C2AFE64430F6D2AFAE0CEEC39F5030
:100C4F00210E741B2EF8E6F908E618BE030274FF96
:100C5F00FDED69600909E71919F7090980F31616FF
:100C6F0080DAEED39F400405810581EED39F4022A9
:100C7F00741B2EF808E6F9EEB50C02A981180606CA
:100C8F00E6FDED6960091919E70909F71980F31EE7
:100C9F0080D9EF241BF8E604F8EF2F04900003939C
:090CAF00F608EF2F93F67F0022F6
:100CB800EFD3940340037FFF22EF232414F8E63098
:100CC800E5F4C2AFE6548CF6D2AFE50CB5070A746A
:100CD8001B2FF8E6F581020B38502E741C2FF8E60E
:100CE800BF030274FFFD18E6F9741B2FF8FBE6FC3E
:100CF800E96C6008A805E7F61D1980F4A803A605A5
:100D08001FE50CB507E37F0022741C2FF8E6FD18D9
:100D180086010F741B2FF8A601088604E50CB50799
:100D280002AC81ED6C60080D09A805E6F780F4E5D2
:090D38000CB507DE89817F002261
:0F0D4100E50C232413F8C3C2AFE69FF6D2AF220E
:100D50008FF0E4FFFEE50C232413F8C2A930F70D51
:100D60007F08E6600B2DF660325030800730F106C8
:100D7000EDF660277E020830F010C2AFE610E725DE
:100D80000E30E20CD2AF7F048014C2AFE610E7153C
:100D900054EC4EF6D2AFD2A9020B387F0808EF44CC
:0F0DA00083F4C2AF56C6D2AFD2A954804FFF2200
:10000E0002031FE86480F8E933E83360110460F0FE
:10001E00ED33EC337009E8FCE9FDEAFEEBFF220458
:10002E0060DED3EB9FEA9EE99DE8C2E78CF0C2F753
:10003E0095F0400CE8CCF8E9CDF9EACEFAEBCFFB1F
:10004E001202EA85D0F05804700320D5B3E804708C
:10005E00075002B2D502032992D5EC0460F7E4CC26
:10006E00C0E0C398F8603B94186008400DD0E0FBE8
:10007E00020301E4FBFAC9FC8028E830E406E4C977
:10008E00FBE4CAFCE830E305E4C9CACBFCE854073C
:10009E006010F8C3E913F9EA13FAEB13FBEC13FC47
:1000AE00D8F130F52FC3E49CFCEF9BFFEE9AFEEDEA
:1000BE0099FDD0E0FBEF4E4D4C701222DB03020394
:1000CE0026EC2CFCEF33FFEE33FEED33FDED30E787
:1000DE00EB020301EF2BFFEE3AFEED39FDD0E0FB14
:1000EE0050130BBB0003020329ED13FDEE13FEEFBD
:0800FE0013FFEC13FC020301E7
:10010600EC4D6011E8497017ED33EC3304600DE4F3
:10011600FCFFFEFD22E933E8330470F802031F12E8
:1001260002EA58046009E4CC2481500628500902EA
:100136000329284003020326C0E0EB4A7044B98035
:1001460006D0E0FB020315EF4E701CBD8008EBFFE6
:10015600EAFEE9FD80EBE98DF0A4FEE5F00201EF91
:10016600E9CDF9EAFEEBFFEF89F0A4FCE5F0CE89D4
:10017600F0A42EFFE435F0CD89F0A42DFEE435F091
:100186008067EF4E7005BD80D780C3EF8BF0A4ACBF
:10019600F0EE8BF0A42CFCE435F0F8EF8AF0A42CFA
:1001A600E5F038FCE433CB8DF0A42CFCE5F03BF80D
:1001B600EE8AF0A42CFCE5F038F8E433CF89F0A4FD
:1001C6002CFCE5F038CF3400CE89F0A42FFFE5F003
:1001D6003EFEE433C98DF0A42EFEE5F039CD8AF05B
:1001E600A42FFFE5F03EFEE43DFD33D0E0FB5007D3
:1001F6000BBB000F020329EC2CFCEF33FFEE33FEA2
:06020600ED33FD020301CF
:10020C00020329EC5D046005E85904700302031F26
:10021C001202EA580460F6EC4860F2EC7004FDFE41
:10022C00FF22C860DB2481C85009C39860025006C5
:10023C000203269850CAF582E9294B4A7005AB8215
:10024C0002031575F0007C1A7880C3EF9BEE9AEDD3
:10025C0099400DC3EF9BFFEE9AFEED99FDE842F03D
:10026C00DC23ACF0D0E0FFD0E0FED0E0FDAB822090
:10027C00E7101BEB60BAEC2CFCEF33FFEE33FEED1A
:10028C0033FD020301E803F830E705C0F075F00018
:10029C00EF2FFFEE33FEED33FD40B830E7C280AAFE
:1002AC0075F020800E75F010800575F0087D007ECD
:1002BC00007F003392D530D503120565EC33401026
:1002CC00EF33FFEE33FEED33FDEC33FCD5F0ED22D6
:0E02DC00E5F0247EA2D513CC92E7CDCEFF2212
:10063A00E50E24F2F582E43401F583E0050E2290FA
:10064A0001EF3007039001F2E475F0011205BC02D4
:10065A0004F72000E97F2ED2008018EF540F24906F
:10066A00D43440D4FF30040BEF24BFB41A00500333
:10067A002461FFE50F6002150F0512E512700205ED
:10068A001130070E9001EFE475F0011205BCEF027C
:10069A00053D0222E27403D2078003E4C207F50E85
:1006AA009001EF1205D3E4F50FF511F512E50F608D
:1006BA00077F2012067D80F57510FFC201C200C2B5
:1006CA0002C203C205C206C208120649FF700D30F3
:1006DA0007057F0012068EAF12AE1122B4255FC243
:1006EA00D5C204120649FF24D0B40A00501A75F084
:1006FA000A780F30D50508B6FF0106C6A426F620EB
:10070A00D5047002D20380D924CFB41A00EF500462
:10071A00C2E5D204020980D20180C6D20080C0D2CA
:10072A000280BCD2D580BAD20580B47F2012067D61
:10073A002002077401B50F0040F112063AFF1206B3
:10074A007D0206B7D208D206809512063AFB120637
:10075A003AFA12063AF94A4B7006797E7A0A7BFF10
:10076A0020022EE50F602A7E008E82758300120514
:10077A001060060EEE651070F0C2D5EBC0E0EAC05C
:10078A00E0E9C0E0EE1209E1D0E0F9D0E0FAD0E009
:10079A00FB1204F7FF60AAEBC0E0EAC0E0E9C0E0A0
:1007AA0012067DD0E02401F9D0E03400FAD0E0FB53
:1007BA00E5100460DCD510D98087D20280A2120924
:1007CA00C360F7E510700104120334A910600DE547
:1007DA0010600914F510120A6BEF60F3EA30E702B1
:1007EA00F404C3995079EAF425100430E701E404CB
:1007FA00F510800D1209C360C1EA05102510120315
:10080A0034EA90021EF030E701E4251004D5100402
:10081A00200501141209E1E4C0E0120A6B90021EDD
:10082A00E0601320E70714F0120665802204F0D076
:10083A00E014C0E07F00120665E510600712065C4E
:10084A001510800B30050312065CD0E00206B7D003
:10085A00E00480C41209C3609EE5100412033490B8
:10086A00021EEAF0E51020050260010424041209C0
:01087A00E19C
:10087B0074FF04C0E0120A6B120665E51020050236
:10088B00600312065CD0E0B510E87F4512066F904E
:10089B00021EE07F2B30E7047F2DF404C0E012062C
:1008AB007DD0E075F00A84C0F0120666D0E0120627
:1008BB00660206B7791080027908C206C208800862
:1008CB00D2D5790A8004790AC2D5E510047002F5F5
:1008DB0010E4FAFDFEFF12063AFC7B08200113120E
:1008EB00063AFD7B1030000A12063AFE12063AFF5A
:1008FB007B20EC3382D592D55013C3E43000069F96
:10090B00FFE49EFEE42001039DFDE49CFCE4CBF898
:10091B00C201EC700CCFCECDCCE824F8F870F3808C
:10092B0017C3EF33FFEE33FEED33FDEC33FCEB334C
:10093B00FB994002FB0FD8E9EB300105F8D0E0C47E
:10094B0048B201C0E00AEC4D4E4F78207B0070C2DC
:10095B00EAB5100040BCC0E01209E3D0F0D0E020B3
:10096B000104C4C0E0C4B201C0F0120666D0F0D5D9
:10097B00F0EB0206B71205DC07545308BF580725E6
:10098B004C07214208C34F08CB4408CB49073A43D5
:10099B0008D15507FE46085E4507C8470A9E500713
:1009AB00292D072D2E07502B073123074E200A87A1
:1009BB002A06E94800000748E510B4FF0375100646
:1009CB0012063AFC12063AFD12063AFE12063AFFDE
:1009DB00900217020371790AA2D52003143005097E
:1009EB00B910020404B9080104A2D5200602500173
:1009FB00042002689202B50F005034C0E07F203013
:100A0B0003197F30A20272067205500F120A3AC206
:100A1B0002C206C205C2087F30800F300503E9C051
:100A2B00E012067D300503D0E0F9D0E0B50FCC30F5
:100A3B0005177F30B9100C12067D7F583004077FE5
:100A4B00788003B9080312067D3002057F2D02065C
:100A5B007D7F202008F87F2B2006F322920280CF87
:100A6B007F00B40700500B2417F582E43402F583A2
:100A7B00E0FF22286E756C6C2900D20112063A3009
:100A8B0001F8C201780F30D50108F60206E92D50A6
:100A9B0043495812063A2403B405004001E4900A76
:100AAB00999312066E743A12066ED203750F0402F6
:020ABB0008BF72
:10212C00D2009001E51205D3122168C0E0FF122302
:10213C0076D0E040F3121993400122ECC0E0EDC0E0
:10214C00E0EEC0E0EFC0E0122168D0F0AFF0D0F0CC
:10215C00AEF0D0F0ADF0D0F0ACF080D9E475F00179
:09216C009001E51205BC0204F724
:101C090002031F22EDA2E7D2E7F9EC3340F260F3B9
:101C1900B4FF08ED547F70E8020329F82481C2E07B
:101C2900C0E0F40428FAC313FCED92E7FD9001EF3C
:101C390012057FEEA2E7E9BA7F02C31334009400CC
:101C4900FA75F091A4E5F013F494FE8AF0A433E553
:101C5900F033248CD313FDE492E7FE7F007C3F75BB
:101C69008302ECC0E0F8EDC0E0F9EEC0E0FAEFC0A5
:101C7900E0FB8583F09001EF12057385F083120272
:101C89000FD0E0FBD0E0FAD0E0F9D0E0F81200156F
:101C9900ED6480FD30E7011CD583C7ED33CC33F803
:0C1CA900D0E0A2E71328C313CC13FD22E7
:1002EA00E9D2E7C933E833F892D5EDD2E7CD33EC5A
:0702FA0033FC5002B2D522D3
:10030100EC30E7100FBF000C0EBE00080DBD00045D
:100311000BEB6014A2D5EB13FCED92E7FD2274FF09
:10032100FCFDFEFF22E480F8A2D574FF13FC7D8062
:03033100E480EF76
:10033400F920E73624F950037907E4F42402FBE5B5
:1003440082158270021583DBF6E024FB501BE96002
:1003540014E4F0E582158270021583E004F0B40A17
:0D03640008E4F0D9EE7401F00A22C2D5229F
:10037100ED33EC3392D5FA602AB4FF33EDC2E77B5B
:10038100FF60067A037996E4227A03799F20D504E7
:100391007A03799A224E614E002B494E46002D492F
:1003A1004E4600E47A08F0A3DAFC7B00740722C011
:1003B10083C082ECC0E0EDC0E0EEC0E0EFC0E0EA57
:1003C10075F010A4CAABF075F04DA42BFBE435F029
:1003D100FCEA2410FAEB34C5FBEC34D9FCEDC2E79E
:1003E100FF75F056A4F42411C5F0F434C58FF0A4C0
:1003F1002AE5F03BE43CF020E7141204B7D0E0FF1B
:10040100D0E0FED0E0FDD0E0FC12020F8014F40435
:100411001204B7D0E0FFD0E0FED0E0FDD0E0FC1246
:100421000106D082D083E0FAEDD2E7CD33EC33245C
:1004310082FBE4C3CF33CFCE33CECD33CD33DBF329
:100441007B0775F00A846004F0A31B0AE5F0F0A3B2
:100451008FF0740AA4FFACF08EF0740AA42CFEACE9
:10046100F050010C8DF0740AA42CFDE435F0F0A3DA
:05047100DBDE74072230
:10198000C201C202C203C204F9E4F50EF50FFCFD68
:10199000FEFFE91000EA20030CB42D04D203D32289
:1019A000B42B02D32224D0504794095041240A304A
:1019B0000415F8850FF0740AA42872E74051C5F0A9
:1019C000704D85F00FD322D202C0E0E4FBFA7920FB
:1019D0007841120106ECF8EDF9EEFAEFFBD0E0FCED
:1019E000E41202B61200153001B4150ED322240AF7
:1019F000200420B4FE0720011AD201D32224EB6078
:101A00000424E0700EA2039201D204C203D322C3C5
:101A100002031FE430040BE50F300302F404A201BB
:101A200092033002EA250E20D2E5A2E7920450028A
:101A3000F404B4260050D8CCC0E0EDC0E0EEC0E025
:101A4000EFC0E0EC1204B7D0E0FFD0E0FED0E0FD44
:101A5000D0E0FC200405120106800312020F3003BF
:061A600003120476C3220C
:10047600ED33EC33600A047003BD8004ECB2E7FC94
:010486002253
:100487003F8000004120000042C80000447A00007D
:10049700461C400047C35000497424004B189680FF
:1004A7004CBEBC205A0E1BCA6753C21C749DC5AEF6
:1004B700FB60065407601C23231204E5EB543860E5
:1004C700091204D11204E0120106ECF8EDF9EEFA74
:1004D700EFCB22EB1204E080F1543803241C900484
:1004E70087FE93FC0EEE93FD0EEE930ECE93FF2246
:03000000021D548A
:0C1D5400787FE4F6D8FD758121021D9B0C
:1004F700BB010689828A83E0225002E722BBFE0203
:09050700E32289828A83E4932235
:10051000BB010CE58229F582E5833AF583E02250A0
:1005200006E92582F8E622BBFE06E92582F8E222EA
:0D053000E58229F582E5833AF583E4932204
:10053D00BB010689828A83F0225002F722BBFE019D
:02054D00F32297
:10054F00A3F8E0C5F025F0F0E5821582700215835F
:06055F00E0C838F0E822BC
:0E056500C3E49FFFE49EFEE49DFDE49CFC22A7
:0C057300E0FCA3E0FDA3E0FEA3E0FF22FB
:0C057F00ECF0A3EDF0A3EEF0A3EFF022EF
:10058B00A8828583F0D083D0821205A21205A21215
:10059B0005A21205A2E473E493A3C583C5F0C5833A
:1005AB00C8C582C8F0A3C583C5F0C583C8C582C8BA
:0105BB00221D
:1005BC00F8E0FBA3A3E0F925F0F0E58215827002C8
:0705CC001583E0FA38F0226C
:0905D300EBF0A3EAF0A3E9F02229
:1005DC00D083D082F8E4937012740193700DA3A3AE
:1005EC0093F8740193F5828883E4737402936860C2
:0605FC00EFA3A3A380DFC2
:1022E200EFB40A07740D1222ED740A309811A899FE
:1022F200B8130CC2983098FDA899C298B811F6305C
:0723020099FDC299F5992233
:10237600EFC394094005EF940E4004EFB42003D355
:042386008001C322ED
:101FB9009001D9EBF0A3EAF0A3E9F0E49001E1F094
:101FC900A3F09001DF74FFF5F012054F45F0603C76
:101FD9009001DCE0FBA3E0FAA3E0F91204F7FF901B
:101FE90001D9E0FBA3E0FAA3E0F99001E1E475F07F
:101FF9000112054F85F082F583EF120602EF60C2E8
:102009009001DDE475F00112062480B69001D9E053
:08201900FBA3E0FAA3E0F922A9
:101D6000020BF2E493A3F8E493A34003F68001F29C
:101D700008DFF48029E493A3F85407240CC8C33384
:101D8000C4540F4420C8834004F456800146F6DF53
:101D9000E4800B0102040810204080902362E47E5E
:101DA000019360BCA3FF543F30E509541FFEE49348
:101DB000A360010ECF54C025E060A840B8E493A30F
:101DC000FAE493A3F8E493A3C8C582C8CAC583CA3A
:101DD000F0A3C8C582C8CAC583CADFE9DEE780BEF2
:012375000067
:10060200F8BB010DE58229F582E5833AF583E8F02E
:10061200225006E92582C8F622BBFE05E92582C8DA
:02062200F222C2
:10062400C5F0F8A3E028F0C5F0F8E5821582700261
:060634001583E038F022FE
:00000001FF
