:10080000F2F3F5F5F6F7F8F9F9FAFAFBFBFCFCFC64
:10081000FDFDFDFDFEFEFEFEFEFEFEFE42C117B624
:10082000D0D1B621E18CD868E95B8FEE446BB4F48B
:100830002D4777A2B6DAFA163232323232323232FB
:1008400032326432326432323232646432323232C0
:10085000646464646464646407080907070809073A
:10086000090A0B090A0B0B0C0B0A09070B0C0B0AE4
:100870000907080407080407003232643232643280
:100880003232191932326432323219193232643248
:10089000326432326464323232326432323232643E
:1008A000323232323232323232323232640B0B0B6B
:1008B0000B0B0B090B0C0B0908090B0B090B090897
:1008C0000709080909080C07080C0C0B090C0B0B8D
:1008D0000908090B0B0908090B090809050708098C
:1008E00007003232323232326432323232643232E1
:1008F0003232323264323232326432323232323274
:100900006432323232643232323232326432323231
:1009100032640B090B090B0907080A09080B0B09BC
:100920000B090B0907080A09080708080A0A09073A
:100930000B080A09080B0B090B090B0907080A0920
:100940000807003232323232326432323232646478
:1009500032323232323264323232326464643232AF
:1009600032323232640B0C0B0C0B0C0B0B0E0D0CD9
:100970000B090B0B090A0B0B090B0B090A0B0B09D3
:08098000070A09080708070037
:0F0B2100010E110110D8010FEF010800010D00A6
:0E0B3100850E8985108B850F8DD2A9D2AB223F
:03000B00020B3FA6
:0D0B3F00C28C850A8A85098CB290D28C3256
:03001B00020B4C89
:0D0B4C00C28E85108B850F8D0508D28E326C
:100988007511007512017F017E00E4FDFCE4F50C91
:10099800120B31E51264014511700AFE7F01E50C66
:1009A8009008588034E51264024511700AFE7F02EF
:1009B800E50C9008AD8022E51264034511700AFE2B
:1009C8007F03E50C9009128010E51264044511704C
:1009D8000CFE7F04E50C90096593FD7C00E4F50CA2
:1009E800E50C9009129360A5209206751100751206
:1009F80001209306751100751202209406751100E6
:100A0800751203209506751100751204C2AFC28CC9
:100A1800C28EE4F508EF64014E700FE50C900838BB
:100A280093F50BE50C900858803DEF64024E700F6B
:100A3800E50C90087993F50BE50C9008AD8028EF4C
:100A480064034E700FE50C9008E293F50BE50C90EB
:100A580009128013EF64044E7013E50C9009439358
:100A6800F50BE50C90096593FDF50D7C00E50D90FF
:100A7800081C93F50AE50D90080093F509D28CD26D
:0D0A88008ED2AFE50BB508FB050C0209E8A6
:03000000020A955C
:0C0A9500787FE4F6D8FD758112020ADCBF
:100AA100020988E493A3F8E493A34003F68001F2DA
:100AB10008DFF48029E493A3F85407240CC8C33356
:100AC100C4540F4420C8834004F456800146F6DF25
:100AD100E4800B0102040810204080900B21E47E89
:100AE100019360BCA3FF543F30E509541FFEE4931A
:100AF100A360010ECF54C025E060A840B8E493A3E1
:100B0100FAE493A3F8E493A3C8C582C8CAC583CA0B
:100B1100F0A3C8C582C8CAC583CADFE9DEE780BEC3
:010B300000C4
:00000001FF
