:03000000020030CB
:0300030002005B9D
:0300130002008365
:100030007581601200407D2812005063A0FF80F699
:1000400075A066D291D288D2BAD2AAD2A8D2AF2253
:100050007F007E00DFFEDEFCDDFA22C2AFC0D0E50D
:10006000A0C0E0C2D4D2D3D2AF75A0FF790A7D0878
:1000700012005063A0FFD9F6C2AFD0E0F5A0D0D0F7
:10008000D2AF32C2AFC0D0D2D4C2D3D2AFE5A0C0BB
:10009000E075A0FF7905C2917D08120050D2917DD4
:1000A00008120050D9F0D0E0F5A0C2AFD0D0D2AF46
:0100B000321D
:00000001FF
