:03000000020030CB
:030023000200F6E2
:100030001200E0C2003000FDE570B4300774001219
:10004000011D80EFB43107740112011D80E5B43247
:1000500007740212011D80DBB43307740312011D03
:1000600080D1B43407740412011D80C7B4350774FD
:100070000512011D80BDB43607740612011D80B340
:10008000B43707740712011D80A9B4380974081227
:10009000011D809F809DB43907740912011D809352
:1000A000B44107740A12011D8089B44207740B120F
:1000B000011D80E0B44307740C12011D80D6B444C6
:1000C00007740D12011D80CCB44507740E12011D7A
:1000D00080C2B446FD740F12011D80B8C2B5013351
:1000E000D29FD29ED29C758920758DFD758BFDD2D5
:1000F0008ED2ACD2AF22309903C29932E59930D07A
:1001000005309A108003209A0BF5707459F599D236
:1001100000C29832744EF599C200C2983290012400
:1001200093F5A022C0F9A4B0999282F880908883B8
:04013000C6A1868E50
:00000001FF
