:10088C00F2F3F5F5F6F7F8F9F9FAFAFBFBFCFCFCD8
:10089C00FDFDFDFDFEFEFEFEFEFEFEFE42C117B698
:1008AC00D0D1B621E18CD868E95B8FEE446BB4F4FF
:1008BC002D4777A2B6DAFA166464646464646464DF
:0908CC000708090A0B0C0D0E00CF
:0F091600010E110110D8010FEF010800010D00B3
:0E092600850E8985108B850F8DD2A9D2AB224C
:03000B00020934B3
:0D093400C28C850A8A85098CB290D28C3263
:03001B0002094196
:0D094100C28E85108B850F8D0508D28E3279
:1008D500E4F50C120926F50CE50C9008CC93FF60A5
:1008E500EFC2AFC28CC28EE4F508E50C9008C49344
:1008F500F50B8F0DEF9008A893F50AEF90088C93F0
:10090500F509D28CD28ED2AFE50BB508FB050C806C
:01091500C71A
:03000000020800F3
:0C080000787FE4F6D8FD758110020847EF
:10080C000208D5E493A3F8E493A34003F68001F225
:10081C0008DFF48029E493A3F85407240CC8C333ED
:10082C00C4540F4420C8834004F456800146F6DFBC
:10083C00E4800B0102040810204080900916E47E2D
:10084C00019360BCA3FF543F30E509541FFEE493B1
:10085C00A360010ECF54C025E060A840B8E493A378
:10086C00FAE493A3F8E493A3C8C582C8CAC583CAA3
:10087C00F0A3C8C582C8CAC583CADFE9DEE780BE5B
:0109250000D1
:00000001FF
